{"contracts/ActionVerifier.sol":{"ActionVerifier":{"abi":[{"inputs":[{"internalType":"bytes32","name":"","type":"bytes32"}],"name":"verifiedActions","outputs":[{"internalType":"bool","name":"","type":"bool"}],"stateMutability":"view","type":"function"},{"inputs":[{"internalType":"bytes","name":"_proof","type":"bytes"},{"internalType":"string","name":"_location","type":"string"}],"name":"verifyAction","outputs":[{"internalType":"bool","name":"","type":"bool"}],"stateMutability":"nonpayable","type":"function"}],"evm":{"bytecode":{"linkReferences":{},"object":"608060405234801561001057600080fd5b5061053d806100206000396000f3fe608060405234801561001057600080fd5b50600436106100365760003560e01c806316cb178e1461003b578063afd481f61461006b575b600080fd5b6100556004803603810190610050919061031a565b61009b565b60405161006291906103ad565b60405180910390f35b610085600480360381019061008091906103fe565b6100ff565b60405161009291906103ad565b60405180910390f35b60008083836040516020016100b19291906104e3565b604051602081830303815290604052805190602001209050600160008083815260200190815260200160002060006101000a81548160ff021916908315150217905550600191505092915050565b60006020528060005260406000206000915054906101000a900460ff1681565b6000604051905090565b600080fd5b600080fd5b600080fd5b600080fd5b6000601f19601f8301169050919050565b7f4e487b7100000000000000000000000000000000000000000000000000000000600052604160045260246000fd5b6101868261013d565b810181811067ffffffffffffffff821117156101a5576101a461014e565b5b80604052505050565b60006101b861011f565b90506101c4828261017d565b919050565b600067ffffffffffffffff8211156101e4576101e361014e565b5b6101ed8261013d565b9050602081019050919050565b82818337600083830152505050565b600061021c610217846101c9565b6101ae565b90508281526020810184848401111561023857610237610138565b5b6102438482856101fa565b509392505050565b600082601f8301126102605761025f610133565b5b8135610270848260208601610209565b91505092915050565b600067ffffffffffffffff8211156102945761029361014e565b5b61029d8261013d565b9050602081019050919050565b60006102bd6102b884610279565b6101ae565b9050828152602081018484840111156102d9576102d8610138565b5b6102e48482856101fa565b509392505050565b600082601f83011261030157610300610133565b5b81356103118482602086016102aa565b91505092915050565b6000806040838503121561033157610330610129565b5b600083013567ffffffffffffffff81111561034f5761034e61012e565b5b61035b8582860161024b565b925050602083013567ffffffffffffffff81111561037c5761037b61012e565b5b610388858286016102ec565b9150509250929050565b60008115159050919050565b6103a781610392565b82525050565b60006020820190506103c2600083018461039e565b92915050565b6000819050919050565b6103db816103c8565b81146103e657600080fd5b50565b6000813590506103f8816103d2565b92915050565b60006020828403121561041457610413610129565b5b6000610422848285016103e9565b91505092915050565b600081519050919050565b600081905092915050565b60005b8381101561045f578082015181840152602081019050610444565b60008484015250505050565b60006104768261042b565b6104808185610436565b9350610490818560208601610441565b80840191505092915050565b600081519050919050565b600081905092915050565b60006104bd8261049c565b6104c781856104a7565b93506104d7818560208601610441565b80840191505092915050565b60006104ef828561046b565b91506104fb82846104b2565b9150819050939250505056fea2646970667358221220603f65cd725be1c577cba36345e3d64bde0214a90c9d8c8867c92179e8c7643264736f6c63430008140033","opcodes":"PUSH1 0x80 PUSH1 0x40 MSTORE CALLVALUE DUP1 ISZERO PUSH2 0x10 JUMPI PUSH1 0x0 DUP1 REVERT JUMPDEST POP PUSH2 0x53D DUP1 PUSH2 0x20 PUSH1 0x0 CODECOPY PUSH1 0x0 RETURN INVALID PUSH1 0x80 PUSH1 0x40 MSTORE CALLVALUE DUP1 ISZERO PUSH2 0x10 JUMPI PUSH1 0x0 DUP1 REVERT JUMPDEST POP PUSH1 0x4 CALLDATASIZE LT PUSH2 0x36 JUMPI PUSH1 0x0 CALLDATALOAD PUSH1 0xE0 SHR DUP1 PUSH4 0x16CB178E EQ PUSH2 0x3B JUMPI DUP1 PUSH4 0xAFD481F6 EQ PUSH2 0x6B JUMPI JUMPDEST PUSH1 0x0 DUP1 REVERT JUMPDEST PUSH2 0x55 PUSH1 0x4 DUP1 CALLDATASIZE SUB DUP2 ADD SWAP1 PUSH2 0x50 SWAP2 SWAP1 PUSH2 0x31A JUMP JUMPDEST PUSH2 0x9B JUMP JUMPDEST PUSH1 0x40 MLOAD PUSH2 0x62 SWAP2 SWAP1 PUSH2 0x3AD JUMP JUMPDEST PUSH1 0x40 MLOAD DUP1 SWAP2 SUB SWAP1 RETURN JUMPDEST PUSH2 0x85 PUSH1 0x4 DUP1 CALLDATASIZE SUB DUP2 ADD SWAP1 PUSH2 0x80 SWAP2 SWAP1 PUSH2 0x3FE JUMP JUMPDEST PUSH2 0xFF JUMP JUMPDEST PUSH1 0x40 MLOAD PUSH2 0x92 SWAP2 SWAP1 PUSH2 0x3AD JUMP JUMPDEST PUSH1 0x40 MLOAD DUP1 SWAP2 SUB SWAP1 RETURN JUMPDEST PUSH1 0x0 DUP1 DUP4 DUP4 PUSH1 0x40 MLOAD PUSH1 0x20 ADD PUSH2 0xB1 SWAP3 SWAP2 SWAP1 PUSH2 0x4E3 JUMP JUMPDEST PUSH1 0x40 MLOAD PUSH1 0x20 DUP2 DUP4 SUB SUB DUP2 MSTORE SWAP1 PUSH1 0x40 MSTORE DUP1 MLOAD SWAP1 PUSH1 0x20 ADD KECCAK256 SWAP1 POP PUSH1 0x1 PUSH1 0x0 DUP1 DUP4 DUP2 MSTORE PUSH1 0x20 ADD SWAP1 DUP2 MSTORE PUSH1 0x20 ADD PUSH1 0x0 KECCAK256 PUSH1 0x0 PUSH2 0x100 EXP DUP2 SLOAD DUP2 PUSH1 0xFF MUL NOT AND SWAP1 DUP4 ISZERO ISZERO MUL OR SWAP1 SSTORE POP PUSH1 0x1 SWAP2 POP POP SWAP3 SWAP2 POP POP JUMP JUMPDEST PUSH1 0x0 PUSH1 0x20 MSTORE DUP1 PUSH1 0x0 MSTORE PUSH1 0x40 PUSH1 0x0 KECCAK256 PUSH1 0x0 SWAP2 POP SLOAD SWAP1 PUSH2 0x100 EXP SWAP1 DIV PUSH1 0xFF AND DUP2 JUMP JUMPDEST PUSH1 0x0 PUSH1 0x40 MLOAD SWAP1 POP SWAP1 JUMP JUMPDEST PUSH1 0x0 DUP1 REVERT JUMPDEST PUSH1 0x0 DUP1 REVERT JUMPDEST PUSH1 0x0 DUP1 REVERT JUMPDEST PUSH1 0x0 DUP1 REVERT JUMPDEST PUSH1 0x0 PUSH1 0x1F NOT PUSH1 0x1F DUP4 ADD AND SWAP1 POP SWAP2 SWAP1 POP JUMP JUMPDEST PUSH32 0x4E487B7100000000000000000000000000000000000000000000000000000000 PUSH1 0x0 MSTORE PUSH1 0x41 PUSH1 0x4 MSTORE PUSH1 0x24 PUSH1 0x0 REVERT JUMPDEST PUSH2 0x186 DUP3 PUSH2 0x13D JUMP JUMPDEST DUP2 ADD DUP2 DUP2 LT PUSH8 0xFFFFFFFFFFFFFFFF DUP3 GT OR ISZERO PUSH2 0x1A5 JUMPI PUSH2 0x1A4 PUSH2 0x14E JUMP JUMPDEST JUMPDEST DUP1 PUSH1 0x40 MSTORE POP POP POP JUMP JUMPDEST PUSH1 0x0 PUSH2 0x1B8 PUSH2 0x11F JUMP JUMPDEST SWAP1 POP PUSH2 0x1C4 DUP3 DUP3 PUSH2 0x17D JUMP JUMPDEST SWAP2 SWAP1 POP JUMP JUMPDEST PUSH1 0x0 PUSH8 0xFFFFFFFFFFFFFFFF DUP3 GT ISZERO PUSH2 0x1E4 JUMPI PUSH2 0x1E3 PUSH2 0x14E JUMP JUMPDEST JUMPDEST PUSH2 0x1ED DUP3 PUSH2 0x13D JUMP JUMPDEST SWAP1 POP PUSH1 0x20 DUP2 ADD SWAP1 POP SWAP2 SWAP1 POP JUMP JUMPDEST DUP3 DUP2 DUP4 CALLDATACOPY PUSH1 0x0 DUP4 DUP4 ADD MSTORE POP POP POP JUMP JUMPDEST PUSH1 0x0 PUSH2 0x21C PUSH2 0x217 DUP5 PUSH2 0x1C9 JUMP JUMPDEST PUSH2 0x1AE JUMP JUMPDEST SWAP1 POP DUP3 DUP2 MSTORE PUSH1 0x20 DUP2 ADD DUP5 DUP5 DUP5 ADD GT ISZERO PUSH2 0x238 JUMPI PUSH2 0x237 PUSH2 0x138 JUMP JUMPDEST JUMPDEST PUSH2 0x243 DUP5 DUP3 DUP6 PUSH2 0x1FA JUMP JUMPDEST POP SWAP4 SWAP3 POP POP POP JUMP JUMPDEST PUSH1 0x0 DUP3 PUSH1 0x1F DUP4 ADD SLT PUSH2 0x260 JUMPI PUSH2 0x25F PUSH2 0x133 JUMP JUMPDEST JUMPDEST DUP2 CALLDATALOAD PUSH2 0x270 DUP5 DUP3 PUSH1 0x20 DUP7 ADD PUSH2 0x209 JUMP JUMPDEST SWAP2 POP POP SWAP3 SWAP2 POP POP JUMP JUMPDEST PUSH1 0x0 PUSH8 0xFFFFFFFFFFFFFFFF DUP3 GT ISZERO PUSH2 0x294 JUMPI PUSH2 0x293 PUSH2 0x14E JUMP JUMPDEST JUMPDEST PUSH2 0x29D DUP3 PUSH2 0x13D JUMP JUMPDEST SWAP1 POP PUSH1 0x20 DUP2 ADD SWAP1 POP SWAP2 SWAP1 POP JUMP JUMPDEST PUSH1 0x0 PUSH2 0x2BD PUSH2 0x2B8 DUP5 PUSH2 0x279 JUMP JUMPDEST PUSH2 0x1AE JUMP JUMPDEST SWAP1 POP DUP3 DUP2 MSTORE PUSH1 0x20 DUP2 ADD DUP5 DUP5 DUP5 ADD GT ISZERO PUSH2 0x2D9 JUMPI PUSH2 0x2D8 PUSH2 0x138 JUMP JUMPDEST JUMPDEST PUSH2 0x2E4 DUP5 DUP3 DUP6 PUSH2 0x1FA JUMP JUMPDEST POP SWAP4 SWAP3 POP POP POP JUMP JUMPDEST PUSH1 0x0 DUP3 PUSH1 0x1F DUP4 ADD SLT PUSH2 0x301 JUMPI PUSH2 0x300 PUSH2 0x133 JUMP JUMPDEST JUMPDEST DUP2 CALLDATALOAD PUSH2 0x311 DUP5 DUP3 PUSH1 0x20 DUP7 ADD PUSH2 0x2AA JUMP JUMPDEST SWAP2 POP POP SWAP3 SWAP2 POP POP JUMP JUMPDEST PUSH1 0x0 DUP1 PUSH1 0x40 DUP4 DUP6 SUB SLT ISZERO PUSH2 0x331 JUMPI PUSH2 0x330 PUSH2 0x129 JUMP JUMPDEST JUMPDEST PUSH1 0x0 DUP4 ADD CALLDATALOAD PUSH8 0xFFFFFFFFFFFFFFFF DUP2 GT ISZERO PUSH2 0x34F JUMPI PUSH2 0x34E PUSH2 0x12E JUMP JUMPDEST JUMPDEST PUSH2 0x35B DUP6 DUP3 DUP7 ADD PUSH2 0x24B JUMP JUMPDEST SWAP3 POP POP PUSH1 0x20 DUP4 ADD CALLDATALOAD PUSH8 0xFFFFFFFFFFFFFFFF DUP2 GT ISZERO PUSH2 0x37C JUMPI PUSH2 0x37B PUSH2 0x12E JUMP JUMPDEST JUMPDEST PUSH2 0x388 DUP6 DUP3 DUP7 ADD PUSH2 0x2EC JUMP JUMPDEST SWAP2 POP POP SWAP3 POP SWAP3 SWAP1 POP JUMP JUMPDEST PUSH1 0x0 DUP2 ISZERO ISZERO SWAP1 POP SWAP2 SWAP1 POP JUMP JUMPDEST PUSH2 0x3A7 DUP2 PUSH2 0x392 JUMP JUMPDEST DUP3 MSTORE POP POP JUMP JUMPDEST PUSH1 0x0 PUSH1 0x20 DUP3 ADD SWAP1 POP PUSH2 0x3C2 PUSH1 0x0 DUP4 ADD DUP5 PUSH2 0x39E JUMP JUMPDEST SWAP3 SWAP2 POP POP JUMP JUMPDEST PUSH1 0x0 DUP2 SWAP1 POP SWAP2 SWAP1 POP JUMP JUMPDEST PUSH2 0x3DB DUP2 PUSH2 0x3C8 JUMP JUMPDEST DUP2 EQ PUSH2 0x3E6 JUMPI PUSH1 0x0 DUP1 REVERT JUMPDEST POP JUMP JUMPDEST PUSH1 0x0 DUP2 CALLDATALOAD SWAP1 POP PUSH2 0x3F8 DUP2 PUSH2 0x3D2 JUMP JUMPDEST SWAP3 SWAP2 POP POP JUMP JUMPDEST PUSH1 0x0 PUSH1 0x20 DUP3 DUP5 SUB SLT ISZERO PUSH2 0x414 JUMPI PUSH2 0x413 PUSH2 0x129 JUMP JUMPDEST JUMPDEST PUSH1 0x0 PUSH2 0x422 DUP5 DUP3 DUP6 ADD PUSH2 0x3E9 JUMP JUMPDEST SWAP2 POP POP SWAP3 SWAP2 POP POP JUMP JUMPDEST PUSH1 0x0 DUP2 MLOAD SWAP1 POP SWAP2 SWAP1 POP JUMP JUMPDEST PUSH1 0x0 DUP2 SWAP1 POP SWAP3 SWAP2 POP POP JUMP JUMPDEST PUSH1 0x0 JUMPDEST DUP4 DUP2 LT ISZERO PUSH2 0x45F JUMPI DUP1 DUP3 ADD MLOAD DUP2 DUP5 ADD MSTORE PUSH1 0x20 DUP2 ADD SWAP1 POP PUSH2 0x444 JUMP JUMPDEST PUSH1 0x0 DUP5 DUP5 ADD MSTORE POP POP POP POP JUMP JUMPDEST PUSH1 0x0 PUSH2 0x476 DUP3 PUSH2 0x42B JUMP JUMPDEST PUSH2 0x480 DUP2 DUP6 PUSH2 0x436 JUMP JUMPDEST SWAP4 POP PUSH2 0x490 DUP2 DUP6 PUSH1 0x20 DUP7 ADD PUSH2 0x441 JUMP JUMPDEST DUP1 DUP5 ADD SWAP2 POP POP SWAP3 SWAP2 POP POP JUMP JUMPDEST PUSH1 0x0 DUP2 MLOAD SWAP1 POP SWAP2 SWAP1 POP JUMP JUMPDEST PUSH1 0x0 DUP2 SWAP1 POP SWAP3 SWAP2 POP POP JUMP JUMPDEST PUSH1 0x0 PUSH2 0x4BD DUP3 PUSH2 0x49C JUMP JUMPDEST PUSH2 0x4C7 DUP2 DUP6 PUSH2 0x4A7 JUMP JUMPDEST SWAP4 POP PUSH2 0x4D7 DUP2 DUP6 PUSH1 0x20 DUP7 ADD PUSH2 0x441 JUMP JUMPDEST DUP1 DUP5 ADD SWAP2 POP POP SWAP3 SWAP2 POP POP JUMP JUMPDEST PUSH1 0x0 PUSH2 0x4EF DUP3 DUP6 PUSH2 0x46B JUMP JUMPDEST SWAP2 POP PUSH2 0x4FB DUP3 DUP5 PUSH2 0x4B2 JUMP JUMPDEST SWAP2 POP DUP2 SWAP1 POP SWAP4 SWAP3 POP POP POP JUMP INVALID LOG2 PUSH5 0x6970667358 0x22 SLT KECCAK256 PUSH1 0x3F PUSH6 0xCD725BE1C577 0xCB LOG3 PUSH4 0x45E3D64B 0xDE MUL EQ 0xA9 0xC SWAP14 DUP13 DUP9 PUSH8 0xC92179E8C7643264 PUSH20 0x6F6C634300081400330000000000000000000000 "},"methodIdentifiers":{"verifiedActions(bytes32)":"afd481f6","verifyAction(bytes,string)":"16cb178e"}}}}}