{
  "_format": "hh-sol-artifact-1",
  "contractName": "EnvolveNFT",
  "sourceName": "contracts/EnvolveNFT.sol",
  "abi": [
    {
      "inputs": [
        {
          "internalType": "string",
          "name": "initialStage0URI",
          "type": "string"
        },
        {
          "internalType": "string",
          "name": "initialStage1URI",
          "type": "string"
        },
        {
          "internalType": "string",
          "name": "initialSplitURI",
          "type": "string"
        }
      ],
      "stateMutability": "nonpayable",
      "type": "constructor"
    },
    {
      "inputs": [
        {
          "internalType": "address",
          "name": "sender",
          "type": "address"
        },
        {
          "internalType": "uint256",
          "name": "tokenId",
          "type": "uint256"
        },
        {
          "internalType": "address",
          "name": "owner",
          "type": "address"
        }
      ],
      "name": "ERC721IncorrectOwner",
      "type": "error"
    },
    {
      "inputs": [
        {
          "internalType": "address",
          "name": "operator",
          "type": "address"
        },
        {
          "internalType": "uint256",
          "name": "tokenId",
          "type": "uint256"
        }
      ],
      "name": "ERC721InsufficientApproval",
      "type": "error"
    },
    {
      "inputs": [
        {
          "internalType": "address",
          "name": "approver",
          "type": "address"
        }
      ],
      "name": "ERC721InvalidApprover",
      "type": "error"
    },
    {
      "inputs": [
        {
          "internalType": "address",
          "name": "operator",
          "type": "address"
        }
      ],
      "name": "ERC721InvalidOperator",
      "type": "error"
    },
    {
      "inputs": [
        {
          "internalType": "address",
          "name": "owner",
          "type": "address"
        }
      ],
      "name": "ERC721InvalidOwner",
      "type": "error"
    },
    {
      "inputs": [
        {
          "internalType": "address",
          "name": "receiver",
          "type": "address"
        }
      ],
      "name": "ERC721InvalidReceiver",
      "type": "error"
    },
    {
      "inputs": [
        {
          "internalType": "address",
          "name": "sender",
          "type": "address"
        }
      ],
      "name": "ERC721InvalidSender",
      "type": "error"
    },
    {
      "inputs": [
        {
          "internalType": "uint256",
          "name": "tokenId",
          "type": "uint256"
        }
      ],
      "name": "ERC721NonexistentToken",
      "type": "error"
    },
    {
      "inputs": [
        {
          "internalType": "address",
          "name": "owner",
          "type": "address"
        }
      ],
      "name": "OwnableInvalidOwner",
      "type": "error"
    },
    {
      "inputs": [
        {
          "internalType": "address",
          "name": "account",
          "type": "address"
        }
      ],
      "name": "OwnableUnauthorizedAccount",
      "type": "error"
    },
    {
      "anonymous": false,
      "inputs": [
        {
          "indexed": true,
          "internalType": "address",
          "name": "owner",
          "type": "address"
        },
        {
          "indexed": true,
          "internalType": "address",
          "name": "approved",
          "type": "address"
        },
        {
          "indexed": true,
          "internalType": "uint256",
          "name": "tokenId",
          "type": "uint256"
        }
      ],
      "name": "Approval",
      "type": "event"
    },
    {
      "anonymous": false,
      "inputs": [
        {
          "indexed": true,
          "internalType": "address",
          "name": "owner",
          "type": "address"
        },
        {
          "indexed": true,
          "internalType": "address",
          "name": "operator",
          "type": "address"
        },
        {
          "indexed": false,
          "internalType": "bool",
          "name": "approved",
          "type": "bool"
        }
      ],
      "name": "ApprovalForAll",
      "type": "event"
    },
    {
      "anonymous": false,
      "inputs": [
        {
          "indexed": true,
          "internalType": "uint256",
          "name": "tokenId",
          "type": "uint256"
        },
        {
          "indexed": false,
          "internalType": "uint8",
          "name": "newStage",
          "type": "uint8"
        },
        {
          "indexed": false,
          "internalType": "string",
          "name": "newURI",
          "type": "string"
        }
      ],
      "name": "NFTStateChange",
      "type": "event"
    },
    {
      "anonymous": false,
      "inputs": [
        {
          "indexed": true,
          "internalType": "address",
          "name": "previousOwner",
          "type": "address"
        },
        {
          "indexed": true,
          "internalType": "address",
          "name": "newOwner",
          "type": "address"
        }
      ],
      "name": "OwnershipTransferred",
      "type": "event"
    },
    {
      "anonymous": false,
      "inputs": [
        {
          "indexed": true,
          "internalType": "address",
          "name": "from",
          "type": "address"
        },
        {
          "indexed": true,
          "internalType": "address",
          "name": "to",
          "type": "address"
        },
        {
          "indexed": true,
          "internalType": "uint256",
          "name": "tokenId",
          "type": "uint256"
        }
      ],
      "name": "Transfer",
      "type": "event"
    },
    {
      "inputs": [],
      "name": "ACTIONS_FOR_EVOLUTION",
      "outputs": [
        {
          "internalType": "uint256",
          "name": "",
          "type": "uint256"
        }
      ],
      "stateMutability": "view",
      "type": "function"
    },
    {
      "inputs": [],
      "name": "ACTIONS_FOR_SPLIT",
      "outputs": [
        {
          "internalType": "uint256",
          "name": "",
          "type": "uint256"
        }
      ],
      "stateMutability": "view",
      "type": "function"
    },
    {
      "inputs": [],
      "name": "actionVerifierAddress",
      "outputs": [
        {
          "internalType": "address",
          "name": "",
          "type": "address"
        }
      ],
      "stateMutability": "view",
      "type": "function"
    },
    {
      "inputs": [
        {
          "internalType": "address",
          "name": "to",
          "type": "address"
        },
        {
          "internalType": "uint256",
          "name": "tokenId",
          "type": "uint256"
        }
      ],
      "name": "approve",
      "outputs": [],
      "stateMutability": "nonpayable",
      "type": "function"
    },
    {
      "inputs": [
        {
          "internalType": "address",
          "name": "owner",
          "type": "address"
        }
      ],
      "name": "balanceOf",
      "outputs": [
        {
          "internalType": "uint256",
          "name": "",
          "type": "uint256"
        }
      ],
      "stateMutability": "view",
      "type": "function"
    },
    {
      "inputs": [
        {
          "internalType": "uint256",
          "name": "tokenId",
          "type": "uint256"
        }
      ],
      "name": "getApproved",
      "outputs": [
        {
          "internalType": "address",
          "name": "",
          "type": "address"
        }
      ],
      "stateMutability": "view",
      "type": "function"
    },
    {
      "inputs": [
        {
          "internalType": "uint256",
          "name": "tokenId",
          "type": "uint256"
        }
      ],
      "name": "incrementActionCount",
      "outputs": [],
      "stateMutability": "nonpayable",
      "type": "function"
    },
    {
      "inputs": [
        {
          "internalType": "address",
          "name": "owner",
          "type": "address"
        },
        {
          "internalType": "address",
          "name": "operator",
          "type": "address"
        }
      ],
      "name": "isApprovedForAll",
      "outputs": [
        {
          "internalType": "bool",
          "name": "",
          "type": "bool"
        }
      ],
      "stateMutability": "view",
      "type": "function"
    },
    {
      "inputs": [
        {
          "internalType": "address[4]",
          "name": "initialOwners",
          "type": "address[4]"
        }
      ],
      "name": "mintGenesis",
      "outputs": [],
      "stateMutability": "nonpayable",
      "type": "function"
    },
    {
      "inputs": [],
      "name": "name",
      "outputs": [
        {
          "internalType": "string",
          "name": "",
          "type": "string"
        }
      ],
      "stateMutability": "view",
      "type": "function"
    },
    {
      "inputs": [
        {
          "internalType": "uint256",
          "name": "",
          "type": "uint256"
        }
      ],
      "name": "nftData",
      "outputs": [
        {
          "internalType": "uint256",
          "name": "actionCount",
          "type": "uint256"
        },
        {
          "internalType": "uint8",
          "name": "evolutionStage",
          "type": "uint8"
        }
      ],
      "stateMutability": "view",
      "type": "function"
    },
    {
      "inputs": [],
      "name": "owner",
      "outputs": [
        {
          "internalType": "address",
          "name": "",
          "type": "address"
        }
      ],
      "stateMutability": "view",
      "type": "function"
    },
    {
      "inputs": [
        {
          "internalType": "uint256",
          "name": "tokenId",
          "type": "uint256"
        }
      ],
      "name": "ownerOf",
      "outputs": [
        {
          "internalType": "address",
          "name": "",
          "type": "address"
        }
      ],
      "stateMutability": "view",
      "type": "function"
    },
    {
      "inputs": [],
      "name": "renounceOwnership",
      "outputs": [],
      "stateMutability": "nonpayable",
      "type": "function"
    },
    {
      "inputs": [
        {
          "internalType": "address",
          "name": "from",
          "type": "address"
        },
        {
          "internalType": "address",
          "name": "to",
          "type": "address"
        },
        {
          "internalType": "uint256",
          "name": "tokenId",
          "type": "uint256"
        }
      ],
      "name": "safeTransferFrom",
      "outputs": [],
      "stateMutability": "nonpayable",
      "type": "function"
    },
    {
      "inputs": [
        {
          "internalType": "address",
          "name": "from",
          "type": "address"
        },
        {
          "internalType": "address",
          "name": "to",
          "type": "address"
        },
        {
          "internalType": "uint256",
          "name": "tokenId",
          "type": "uint256"
        },
        {
          "internalType": "bytes",
          "name": "data",
          "type": "bytes"
        }
      ],
      "name": "safeTransferFrom",
      "outputs": [],
      "stateMutability": "nonpayable",
      "type": "function"
    },
    {
      "inputs": [
        {
          "internalType": "address",
          "name": "_verifierAddress",
          "type": "address"
        }
      ],
      "name": "setActionVerifierAddress",
      "outputs": [],
      "stateMutability": "nonpayable",
      "type": "function"
    },
    {
      "inputs": [
        {
          "internalType": "address",
          "name": "operator",
          "type": "address"
        },
        {
          "internalType": "bool",
          "name": "approved",
          "type": "bool"
        }
      ],
      "name": "setApprovalForAll",
      "outputs": [],
      "stateMutability": "nonpayable",
      "type": "function"
    },
    {
      "inputs": [
        {
          "internalType": "string",
          "name": "stage0",
          "type": "string"
        },
        {
          "internalType": "string",
          "name": "stage1",
          "type": "string"
        },
        {
          "internalType": "string",
          "name": "split",
          "type": "string"
        }
      ],
      "name": "setBaseURIs",
      "outputs": [],
      "stateMutability": "nonpayable",
      "type": "function"
    },
    {
      "inputs": [
        {
          "internalType": "bytes4",
          "name": "interfaceId",
          "type": "bytes4"
        }
      ],
      "name": "supportsInterface",
      "outputs": [
        {
          "internalType": "bool",
          "name": "",
          "type": "bool"
        }
      ],
      "stateMutability": "view",
      "type": "function"
    },
    {
      "inputs": [],
      "name": "symbol",
      "outputs": [
        {
          "internalType": "string",
          "name": "",
          "type": "string"
        }
      ],
      "stateMutability": "view",
      "type": "function"
    },
    {
      "inputs": [
        {
          "internalType": "uint256",
          "name": "tokenId",
          "type": "uint256"
        }
      ],
      "name": "tokenURI",
      "outputs": [
        {
          "internalType": "string",
          "name": "",
          "type": "string"
        }
      ],
      "stateMutability": "view",
      "type": "function"
    },
    {
      "inputs": [
        {
          "internalType": "address",
          "name": "from",
          "type": "address"
        },
        {
          "internalType": "address",
          "name": "to",
          "type": "address"
        },
        {
          "internalType": "uint256",
          "name": "tokenId",
          "type": "uint256"
        }
      ],
      "name": "transferFrom",
      "outputs": [],
      "stateMutability": "nonpayable",
      "type": "function"
    },
    {
      "inputs": [
        {
          "internalType": "address",
          "name": "newOwner",
          "type": "address"
        }
      ],
      "name": "transferOwnership",
      "outputs": [],
      "stateMutability": "nonpayable",
      "type": "function"
    }
  ],
  "bytecode": "0x608060405260006007553480156200001657600080fd5b5060405162003e0e38038062003e0e83398181016040528101906200003c9190620003ee565b336040518060400160405280600781526020017f456e766f6c7665000000000000000000000000000000000000000000000000008152506040518060400160405280600381526020017f454e5600000000000000000000000000000000000000000000000000000000008152508160009081620000ba9190620006f2565b508060019081620000cc9190620006f2565b505050600073ffffffffffffffffffffffffffffffffffffffff168173ffffffffffffffffffffffffffffffffffffffff1603620001445760006040517f1e4fbdf70000000000000000000000000000000000000000000000000000000081526004016200013b91906200081e565b60405180910390fd5b62000155816200019560201b60201c565b5082600a9081620001679190620006f2565b5081600b9081620001799190620006f2565b5080600c90816200018b9190620006f2565b505050506200083b565b6000600660009054906101000a900473ffffffffffffffffffffffffffffffffffffffff16905081600660006101000a81548173ffffffffffffffffffffffffffffffffffffffff021916908373ffffffffffffffffffffffffffffffffffffffff1602179055508173ffffffffffffffffffffffffffffffffffffffff168173ffffffffffffffffffffffffffffffffffffffff167f8be0079c531659141344cd1fd0a4f28419497f9722a3daafe3b4186f6b6457e060405160405180910390a35050565b6000604051905090565b600080fd5b600080fd5b600080fd5b600080fd5b6000601f19601f8301169050919050565b7f4e487b7100000000000000000000000000000000000000000000000000000000600052604160045260246000fd5b620002c48262000279565b810181811067ffffffffffffffff82111715620002e657620002e56200028a565b5b80604052505050565b6000620002fb6200025b565b9050620003098282620002b9565b919050565b600067ffffffffffffffff8211156200032c576200032b6200028a565b5b620003378262000279565b9050602081019050919050565b60005b838110156200036457808201518184015260208101905062000347565b60008484015250505050565b60006200038762000381846200030e565b620002ef565b905082815260208101848484011115620003a657620003a562000274565b5b620003b384828562000344565b509392505050565b600082601f830112620003d357620003d26200026f565b5b8151620003e584826020860162000370565b91505092915050565b6000806000606084860312156200040a576200040962000265565b5b600084015167ffffffffffffffff8111156200042b576200042a6200026a565b5b6200043986828701620003bb565b935050602084015167ffffffffffffffff8111156200045d576200045c6200026a565b5b6200046b86828701620003bb565b925050604084015167ffffffffffffffff8111156200048f576200048e6200026a565b5b6200049d86828701620003bb565b9150509250925092565b600081519050919050565b7f4e487b7100000000000000000000000000000000000000000000000000000000600052602260045260246000fd5b60006002820490506001821680620004fa57607f821691505b60208210810362000510576200050f620004b2565b5b50919050565b60008190508160005260206000209050919050565b60006020601f8301049050919050565b600082821b905092915050565b6000600883026200057a7fffffffffffffffffffffffffffffffffffffffffffffffffffffffffffffffff826200053b565b6200058686836200053b565b95508019841693508086168417925050509392505050565b6000819050919050565b6000819050919050565b6000620005d3620005cd620005c7846200059e565b620005a8565b6200059e565b9050919050565b6000819050919050565b620005ef83620005b2565b62000607620005fe82620005da565b84845462000548565b825550505050565b600090565b6200061e6200060f565b6200062b818484620005e4565b505050565b5b8181101562000653576200064760008262000614565b60018101905062000631565b5050565b601f821115620006a2576200066c8162000516565b62000677846200052b565b8101602085101562000687578190505b6200069f62000696856200052b565b83018262000630565b50505b505050565b600082821c905092915050565b6000620006c760001984600802620006a7565b1980831691505092915050565b6000620006e28383620006b4565b9150826002028217905092915050565b620006fd82620004a7565b67ffffffffffffffff8111156200071957620007186200028a565b5b620007258254620004e1565b6200073282828562000657565b600060209050601f8311600181146200076a576000841562000755578287015190505b620007618582620006d4565b865550620007d1565b601f1984166200077a8662000516565b60005b82811015620007a4578489015182556001820191506020850194506020810190506200077d565b86831015620007c45784890151620007c0601f891682620006b4565b8355505b6001600288020188555050505b505050505050565b600073ffffffffffffffffffffffffffffffffffffffff82169050919050565b60006200080682620007d9565b9050919050565b6200081881620007f9565b82525050565b60006020820190506200083560008301846200080d565b92915050565b6135c3806200084b6000396000f3fe608060405234801561001057600080fd5b50600436106101585760003560e01c8063715018a6116100c3578063ba3b09b81161007c578063ba3b09b8146103b2578063c87b56dd146103ce578063d54aa0df146103fe578063df0929cb1461041a578063e985e9c514610438578063f2fde38b1461046857610158565b8063715018a6146103035780638c2109751461030d5780638da5cb5b1461033e57806395d89b411461035c578063a22cb4651461037a578063b88d4fde1461039657610158565b806323b872dd1161011557806323b872dd146102315780633dcd73991461024d57806342842e0e1461026b5780636352211e146102875780636bc5f9bb146102b757806370a08231146102d357610158565b806301ffc9a71461015d57806306fdde031461018d578063081812fc146101ab578063095ea7b3146101db5780630c09caea146101f75780632375884214610213575b600080fd5b610177600480360381019061017291906122dc565b610484565b6040516101849190612324565b60405180910390f35b610195610566565b6040516101a291906123cf565b60405180910390f35b6101c560048036038101906101c09190612427565b6105f8565b6040516101d29190612495565b60405180910390f35b6101f560048036038101906101f091906124dc565b610614565b005b610211600480360381019061020c9190612652565b61062a565b005b61021b610784565b604051610228919061268e565b60405180910390f35b61024b600480360381019061024691906126a9565b610789565b005b61025561088b565b6040516102629190612495565b60405180910390f35b610285600480360381019061028091906126a9565b6108b1565b005b6102a1600480360381019061029c9190612427565b6108d1565b6040516102ae9190612495565b60405180910390f35b6102d160048036038101906102cc91906127b1565b6108e3565b005b6102ed60048036038101906102e89190612858565b610920565b6040516102fa919061268e565b60405180910390f35b61030b6109da565b005b61032760048036038101906103229190612427565b6109ee565b6040516103359291906128a1565b60405180910390f35b610346610a1f565b6040516103539190612495565b60405180910390f35b610364610a49565b60405161037191906123cf565b60405180910390f35b610394600480360381019061038f91906128f6565b610adb565b005b6103b060048036038101906103ab91906129d7565b610af1565b005b6103cc60048036038101906103c79190612427565b610b16565b005b6103e860048036038101906103e39190612427565b610d43565b6040516103f591906123cf565b60405180910390f35b61041860048036038101906104139190612858565b610e5f565b005b610422610eab565b60405161042f919061268e565b60405180910390f35b610452600480360381019061044d9190612a5a565b610eb0565b60405161045f9190612324565b60405180910390f35b610482600480360381019061047d9190612858565b610f44565b005b60007f80ac58cd000000000000000000000000000000000000000000000000000000007bffffffffffffffffffffffffffffffffffffffffffffffffffffffff1916827bffffffffffffffffffffffffffffffffffffffffffffffffffffffff1916148061054f57507f5b5e139f000000000000000000000000000000000000000000000000000000007bffffffffffffffffffffffffffffffffffffffffffffffffffffffff1916827bffffffffffffffffffffffffffffffffffffffffffffffffffffffff1916145b8061055f575061055e82610fca565b5b9050919050565b60606000805461057590612ac9565b80601f01602080910402602001604051908101604052809291908181526020018280546105a190612ac9565b80156105ee5780601f106105c3576101008083540402835291602001916105ee565b820191906000526020600020905b8154815290600101906020018083116105d157829003601f168201915b5050505050905090565b600061060382611034565b5061060d826110bc565b9050919050565b61062682826106216110f9565b611101565b5050565b600061063530611113565b90506106cb81600a805461064890612ac9565b80601f016020809104026020016040519081016040528092919081815260200182805461067490612ac9565b80156106c15780601f10610696576101008083540402835291602001916106c1565b820191906000526020600020905b8154815290600101906020018083116106a457829003601f168201915b5050505050611143565b604051806060016040528060008152602001838152602001600060ff16815250600d60008381526020019081526020016000206000820151816000015560208201518160010190600461071f92919061217a565b5060408201518160050160006101000a81548160ff021916908360ff160217905550905050807f381dfcb000348bb43feb56777d12e2062350b7c9f2c6a3628494f00ddfab2e596000600a604051610778929190612bd8565b60405180910390a25050565b601981565b600073ffffffffffffffffffffffffffffffffffffffff168273ffffffffffffffffffffffffffffffffffffffff16036107fb5760006040517f64a0ae920000000000000000000000000000000000000000000000000000000081526004016107f29190612495565b60405180910390fd5b600061080f838361080a6110f9565b6111df565b90508373ffffffffffffffffffffffffffffffffffffffff168173ffffffffffffffffffffffffffffffffffffffff1614610885578382826040517f64283d7b00000000000000000000000000000000000000000000000000000000815260040161087c93929190612c08565b60405180910390fd5b50505050565b600860009054906101000a900473ffffffffffffffffffffffffffffffffffffffff1681565b6108cc83838360405180602001604052806000815250610af1565b505050565b60006108dc82611034565b9050919050565b6108eb6113f9565b82600a90816108fa9190612dcc565b5081600b908161090a9190612dcc565b5080600c908161091a9190612dcc565b50505050565b60008073ffffffffffffffffffffffffffffffffffffffff168273ffffffffffffffffffffffffffffffffffffffff16036109935760006040517f89c62b6400000000000000000000000000000000000000000000000000000000815260040161098a9190612495565b60405180910390fd5b600360008373ffffffffffffffffffffffffffffffffffffffff1673ffffffffffffffffffffffffffffffffffffffff168152602001908152602001600020549050919050565b6109e26113f9565b6109ec6000611480565b565b600d6020528060005260406000206000915090508060000154908060050160009054906101000a900460ff16905082565b6000600660009054906101000a900473ffffffffffffffffffffffffffffffffffffffff16905090565b606060018054610a5890612ac9565b80601f0160208091040260200160405190810160405280929190818152602001828054610a8490612ac9565b8015610ad15780601f10610aa657610100808354040283529160200191610ad1565b820191906000526020600020905b815481529060010190602001808311610ab457829003601f168201915b5050505050905090565b610aed610ae66110f9565b8383611546565b5050565b610afc848484610789565b610b10610b076110f9565b858585856116b5565b50505050565b600860009054906101000a900473ffffffffffffffffffffffffffffffffffffffff1673ffffffffffffffffffffffffffffffffffffffff163373ffffffffffffffffffffffffffffffffffffffff1614610ba6576040517f08c379a0000000000000000000000000000000000000000000000000000000008152600401610b9d90612f10565b60405180910390fd5b6000600d6000838152602001908152602001600020905060028160050160009054906101000a900460ff1660ff1610610c14576040517f08c379a0000000000000000000000000000000000000000000000000000000008152600401610c0b90612fa2565b60405180910390fd5b806000016000815480929190610c2990612ff1565b9190505550600a816000015403610d295760018160050160006101000a81548160ff021916908360ff160217905550610cec82600b8054610c6990612ac9565b80601f0160208091040260200160405190810160405280929190818152602001828054610c9590612ac9565b8015610ce25780601f10610cb757610100808354040283529160200191610ce2565b820191906000526020600020905b815481529060010190602001808311610cc557829003601f168201915b5050505050611143565b817f381dfcb000348bb43feb56777d12e2062350b7c9f2c6a3628494f00ddfab2e596001600b604051610d20929190613074565b60405180910390a25b6019816000015410610d3f57610d3e82611866565b5b5050565b6060600073ffffffffffffffffffffffffffffffffffffffff16610d66836119a4565b73ffffffffffffffffffffffffffffffffffffffff1603610dbc576040517f08c379a0000000000000000000000000000000000000000000000000000000008152600401610db3906130f0565b60405180910390fd5b600960008381526020019081526020016000208054610dda90612ac9565b80601f0160208091040260200160405190810160405280929190818152602001828054610e0690612ac9565b8015610e535780601f10610e2857610100808354040283529160200191610e53565b820191906000526020600020905b815481529060010190602001808311610e3657829003601f168201915b50505050509050919050565b610e676113f9565b80600860006101000a81548173ffffffffffffffffffffffffffffffffffffffff021916908373ffffffffffffffffffffffffffffffffffffffff16021790555050565b600a81565b6000600560008473ffffffffffffffffffffffffffffffffffffffff1673ffffffffffffffffffffffffffffffffffffffff16815260200190815260200160002060008373ffffffffffffffffffffffffffffffffffffffff1673ffffffffffffffffffffffffffffffffffffffff16815260200190815260200160002060009054906101000a900460ff16905092915050565b610f4c6113f9565b600073ffffffffffffffffffffffffffffffffffffffff168173ffffffffffffffffffffffffffffffffffffffff1603610fbe5760006040517f1e4fbdf7000000000000000000000000000000000000000000000000000000008152600401610fb59190612495565b60405180910390fd5b610fc781611480565b50565b60007f01ffc9a7000000000000000000000000000000000000000000000000000000007bffffffffffffffffffffffffffffffffffffffffffffffffffffffff1916827bffffffffffffffffffffffffffffffffffffffffffffffffffffffff1916149050919050565b600080611040836119a4565b9050600073ffffffffffffffffffffffffffffffffffffffff168173ffffffffffffffffffffffffffffffffffffffff16036110b357826040517f7e2732890000000000000000000000000000000000000000000000000000000081526004016110aa919061268e565b60405180910390fd5b80915050919050565b60006004600083815260200190815260200160002060009054906101000a900473ffffffffffffffffffffffffffffffffffffffff169050919050565b600033905090565b61110e83838360016119e1565b505050565b60006007600081548092919061112890612ff1565b919050555061113982600754611ba6565b6007549050919050565b600073ffffffffffffffffffffffffffffffffffffffff16611164836119a4565b73ffffffffffffffffffffffffffffffffffffffff16036111ba576040517f08c379a00000000000000000000000000000000000000000000000000000000081526004016111b190613182565b60405180910390fd5b806009600084815260200190815260200160002090816111da9190612dcc565b505050565b6000806111eb846119a4565b9050600073ffffffffffffffffffffffffffffffffffffffff168373ffffffffffffffffffffffffffffffffffffffff161461122d5761122c818486611bc4565b5b600073ffffffffffffffffffffffffffffffffffffffff168173ffffffffffffffffffffffffffffffffffffffff16146112be5761126f6000856000806119e1565b6001600360008373ffffffffffffffffffffffffffffffffffffffff1673ffffffffffffffffffffffffffffffffffffffff168152602001908152602001600020600082825403925050819055505b600073ffffffffffffffffffffffffffffffffffffffff168573ffffffffffffffffffffffffffffffffffffffff1614611341576001600360008773ffffffffffffffffffffffffffffffffffffffff1673ffffffffffffffffffffffffffffffffffffffff168152602001908152602001600020600082825401925050819055505b846002600086815260200190815260200160002060006101000a81548173ffffffffffffffffffffffffffffffffffffffff021916908373ffffffffffffffffffffffffffffffffffffffff160217905550838573ffffffffffffffffffffffffffffffffffffffff168273ffffffffffffffffffffffffffffffffffffffff167fddf252ad1be2c89b69c2b068fc378daa952ba7f163c4a11628f55a4df523b3ef60405160405180910390a4809150509392505050565b6114016110f9565b73ffffffffffffffffffffffffffffffffffffffff1661141f610a1f565b73ffffffffffffffffffffffffffffffffffffffff161461147e576114426110f9565b6040517f118cdaa70000000000000000000000000000000000000000000000000000000081526004016114759190612495565b60405180910390fd5b565b6000600660009054906101000a900473ffffffffffffffffffffffffffffffffffffffff16905081600660006101000a81548173ffffffffffffffffffffffffffffffffffffffff021916908373ffffffffffffffffffffffffffffffffffffffff1602179055508173ffffffffffffffffffffffffffffffffffffffff168173ffffffffffffffffffffffffffffffffffffffff167f8be0079c531659141344cd1fd0a4f28419497f9722a3daafe3b4186f6b6457e060405160405180910390a35050565b600073ffffffffffffffffffffffffffffffffffffffff168273ffffffffffffffffffffffffffffffffffffffff16036115b757816040517f5b08ba180000000000000000000000000000000000000000000000000000000081526004016115ae9190612495565b60405180910390fd5b80600560008573ffffffffffffffffffffffffffffffffffffffff1673ffffffffffffffffffffffffffffffffffffffff16815260200190815260200160002060008473ffffffffffffffffffffffffffffffffffffffff1673ffffffffffffffffffffffffffffffffffffffff16815260200190815260200160002060006101000a81548160ff0219169083151502179055508173ffffffffffffffffffffffffffffffffffffffff168373ffffffffffffffffffffffffffffffffffffffff167f17307eab39ab6107e8899845ad3d59bd9653f200f220920489ca2b5937696c31836040516116a89190612324565b60405180910390a3505050565b60008373ffffffffffffffffffffffffffffffffffffffff163b111561185f578273ffffffffffffffffffffffffffffffffffffffff1663150b7a02868685856040518563ffffffff1660e01b815260040161171494939291906131f7565b6020604051808303816000875af192505050801561175057506040513d601f19601f8201168201806040525081019061174d9190613258565b60015b6117d4573d8060008114611780576040519150601f19603f3d011682016040523d82523d6000602084013e611785565b606091505b5060008151036117cc57836040517f64a0ae920000000000000000000000000000000000000000000000000000000081526004016117c39190612495565b60405180910390fd5b805160208201fd5b63150b7a0260e01b7bffffffffffffffffffffffffffffffffffffffffffffffffffffffff1916817bffffffffffffffffffffffffffffffffffffffffffffffffffffffff19161461185d57836040517f64a0ae920000000000000000000000000000000000000000000000000000000081526004016118549190612495565b60405180910390fd5b505b5050505050565b6000600d600083815260200190815260200160002090506019816000015410156118c5576040517f08c379a00000000000000000000000000000000000000000000000000000000081526004016118bc906132f7565b60405180910390fd5b60028160050160006101000a81548160ff021916908360ff16021790555060005b60048160ff161015611996576000611937836001018360ff16600481106119105761190f613317565b5b0160009054906101000a900473ffffffffffffffffffffffffffffffffffffffff16611113565b90506000600c61195560018561194d9190613346565b60ff16611c88565b6040516020016119669291906134d2565b60405160208183030381529060405290506119818282611143565b5050808061198e9061350c565b9150506118e6565b506119a082611d56565b5050565b60006002600083815260200190815260200160002060009054906101000a900473ffffffffffffffffffffffffffffffffffffffff169050919050565b8080611a1a5750600073ffffffffffffffffffffffffffffffffffffffff168273ffffffffffffffffffffffffffffffffffffffff1614155b15611b4e576000611a2a84611034565b9050600073ffffffffffffffffffffffffffffffffffffffff168373ffffffffffffffffffffffffffffffffffffffff1614158015611a9557508273ffffffffffffffffffffffffffffffffffffffff168173ffffffffffffffffffffffffffffffffffffffff1614155b8015611aa85750611aa68184610eb0565b155b15611aea57826040517fa9fbf51f000000000000000000000000000000000000000000000000000000008152600401611ae19190612495565b60405180910390fd5b8115611b4c57838573ffffffffffffffffffffffffffffffffffffffff168273ffffffffffffffffffffffffffffffffffffffff167f8c5be1e5ebec7d5bd14f71427d1e84f3dd0314c0f7b2291e5b200ac8c7c3b92560405160405180910390a45b505b836004600085815260200190815260200160002060006101000a81548173ffffffffffffffffffffffffffffffffffffffff021916908373ffffffffffffffffffffffffffffffffffffffff16021790555050505050565b611bc0828260405180602001604052806000815250611dc3565b5050565b611bcf838383611de7565b611c8357600073ffffffffffffffffffffffffffffffffffffffff168373ffffffffffffffffffffffffffffffffffffffff1603611c4457806040517f7e273289000000000000000000000000000000000000000000000000000000008152600401611c3b919061268e565b60405180910390fd5b81816040517f177e802f000000000000000000000000000000000000000000000000000000008152600401611c7a929190613535565b60405180910390fd5b505050565b606060006001611c9784611ea8565b01905060008167ffffffffffffffff811115611cb657611cb5612521565b5b6040519080825280601f01601f191660200182016040528015611ce85781602001600182028036833780820191505090505b509050600082602083010190505b600115611d4b578080600190039150507f3031323334353637383961626364656600000000000000000000000000000000600a86061a8153600a8581611d3f57611d3e61355e565b5b04945060008503611cf6575b819350505050919050565b611d5f81611ffb565b600960008281526020019081526020016000206000611d7e91906121f7565b600d6000828152602001908152602001600020600080820160009055600182016000611daa9190612237565b6005820160006101000a81549060ff0219169055505050565b611dcd8383612081565b611de2611dd86110f9565b60008585856116b5565b505050565b60008073ffffffffffffffffffffffffffffffffffffffff168373ffffffffffffffffffffffffffffffffffffffff1614158015611e9f57508273ffffffffffffffffffffffffffffffffffffffff168473ffffffffffffffffffffffffffffffffffffffff161480611e605750611e5f8484610eb0565b5b80611e9e57508273ffffffffffffffffffffffffffffffffffffffff16611e86836110bc565b73ffffffffffffffffffffffffffffffffffffffff16145b5b90509392505050565b600080600090507a184f03e93ff9f4daa797ed6e38ed64bf6a1f0100000000000000008310611f06577a184f03e93ff9f4daa797ed6e38ed64bf6a1f0100000000000000008381611efc57611efb61355e565b5b0492506040810190505b6d04ee2d6d415b85acef81000000008310611f43576d04ee2d6d415b85acef81000000008381611f3957611f3861355e565b5b0492506020810190505b662386f26fc100008310611f7257662386f26fc100008381611f6857611f6761355e565b5b0492506010810190505b6305f5e1008310611f9b576305f5e1008381611f9157611f9061355e565b5b0492506008810190505b6127108310611fc0576127108381611fb657611fb561355e565b5b0492506004810190505b60648310611fe35760648381611fd957611fd861355e565b5b0492506002810190505b600a8310611ff2576001810190505b80915050919050565b600061200a60008360006111df565b9050600073ffffffffffffffffffffffffffffffffffffffff168173ffffffffffffffffffffffffffffffffffffffff160361207d57816040517f7e273289000000000000000000000000000000000000000000000000000000008152600401612074919061268e565b60405180910390fd5b5050565b600073ffffffffffffffffffffffffffffffffffffffff168273ffffffffffffffffffffffffffffffffffffffff16036120f35760006040517f64a0ae920000000000000000000000000000000000000000000000000000000081526004016120ea9190612495565b60405180910390fd5b6000612101838360006111df565b9050600073ffffffffffffffffffffffffffffffffffffffff168173ffffffffffffffffffffffffffffffffffffffff16146121755760006040517f73c6ac6e00000000000000000000000000000000000000000000000000000000815260040161216c9190612495565b60405180910390fd5b505050565b82600481019282156121e6579160200282015b828111156121e55782518260006101000a81548173ffffffffffffffffffffffffffffffffffffffff021916908373ffffffffffffffffffffffffffffffffffffffff1602179055509160200191906001019061218d565b5b5090506121f39190612253565b5090565b50805461220390612ac9565b6000825580601f106122155750612234565b601f0160209004906000526020600020908101906122339190612253565b5b50565b5060008155600101600081556001016000815560010160009055565b5b8082111561226c576000816000905550600101612254565b5090565b6000604051905090565b600080fd5b600080fd5b60007fffffffff0000000000000000000000000000000000000000000000000000000082169050919050565b6122b981612284565b81146122c457600080fd5b50565b6000813590506122d6816122b0565b92915050565b6000602082840312156122f2576122f161227a565b5b6000612300848285016122c7565b91505092915050565b60008115159050919050565b61231e81612309565b82525050565b60006020820190506123396000830184612315565b92915050565b600081519050919050565b600082825260208201905092915050565b60005b8381101561237957808201518184015260208101905061235e565b60008484015250505050565b6000601f19601f8301169050919050565b60006123a18261233f565b6123ab818561234a565b93506123bb81856020860161235b565b6123c481612385565b840191505092915050565b600060208201905081810360008301526123e98184612396565b905092915050565b6000819050919050565b612404816123f1565b811461240f57600080fd5b50565b600081359050612421816123fb565b92915050565b60006020828403121561243d5761243c61227a565b5b600061244b84828501612412565b91505092915050565b600073ffffffffffffffffffffffffffffffffffffffff82169050919050565b600061247f82612454565b9050919050565b61248f81612474565b82525050565b60006020820190506124aa6000830184612486565b92915050565b6124b981612474565b81146124c457600080fd5b50565b6000813590506124d6816124b0565b92915050565b600080604083850312156124f3576124f261227a565b5b6000612501858286016124c7565b925050602061251285828601612412565b9150509250929050565b600080fd5b7f4e487b7100000000000000000000000000000000000000000000000000000000600052604160045260246000fd5b61255982612385565b810181811067ffffffffffffffff8211171561257857612577612521565b5b80604052505050565b600061258b612270565b90506125978282612550565b919050565b600067ffffffffffffffff8211156125b7576125b6612521565b5b602082029050919050565b600080fd5b60006125da6125d58461259c565b612581565b905080602084028301858111156125f4576125f36125c2565b5b835b8181101561261d578061260988826124c7565b8452602084019350506020810190506125f6565b5050509392505050565b600082601f83011261263c5761263b61251c565b5b60046126498482856125c7565b91505092915050565b6000608082840312156126685761266761227a565b5b600061267684828501612627565b91505092915050565b612688816123f1565b82525050565b60006020820190506126a3600083018461267f565b92915050565b6000806000606084860312156126c2576126c161227a565b5b60006126d0868287016124c7565b93505060206126e1868287016124c7565b92505060406126f286828701612412565b9150509250925092565b600080fd5b600067ffffffffffffffff82111561271c5761271b612521565b5b61272582612385565b9050602081019050919050565b82818337600083830152505050565b600061275461274f84612701565b612581565b9050828152602081018484840111156127705761276f6126fc565b5b61277b848285612732565b509392505050565b600082601f8301126127985761279761251c565b5b81356127a8848260208601612741565b91505092915050565b6000806000606084860312156127ca576127c961227a565b5b600084013567ffffffffffffffff8111156127e8576127e761227f565b5b6127f486828701612783565b935050602084013567ffffffffffffffff8111156128155761281461227f565b5b61282186828701612783565b925050604084013567ffffffffffffffff8111156128425761284161227f565b5b61284e86828701612783565b9150509250925092565b60006020828403121561286e5761286d61227a565b5b600061287c848285016124c7565b91505092915050565b600060ff82169050919050565b61289b81612885565b82525050565b60006040820190506128b6600083018561267f565b6128c36020830184612892565b9392505050565b6128d381612309565b81146128de57600080fd5b50565b6000813590506128f0816128ca565b92915050565b6000806040838503121561290d5761290c61227a565b5b600061291b858286016124c7565b925050602061292c858286016128e1565b9150509250929050565b600067ffffffffffffffff82111561295157612950612521565b5b61295a82612385565b9050602081019050919050565b600061297a61297584612936565b612581565b905082815260208101848484011115612996576129956126fc565b5b6129a1848285612732565b509392505050565b600082601f8301126129be576129bd61251c565b5b81356129ce848260208601612967565b91505092915050565b600080600080608085870312156129f1576129f061227a565b5b60006129ff878288016124c7565b9450506020612a10878288016124c7565b9350506040612a2187828801612412565b925050606085013567ffffffffffffffff811115612a4257612a4161227f565b5b612a4e878288016129a9565b91505092959194509250565b60008060408385031215612a7157612a7061227a565b5b6000612a7f858286016124c7565b9250506020612a90858286016124c7565b9150509250929050565b7f4e487b7100000000000000000000000000000000000000000000000000000000600052602260045260246000fd5b60006002820490506001821680612ae157607f821691505b602082108103612af457612af3612a9a565b5b50919050565b6000819050919050565b6000819050919050565b6000612b29612b24612b1f84612afa565b612b04565b612885565b9050919050565b612b3981612b0e565b82525050565b60008190508160005260206000209050919050565b60008154612b6181612ac9565b612b6b818661234a565b94506001821660008114612b865760018114612b9c57612bcf565b60ff198316865281151560200286019350612bcf565b612ba585612b3f565b60005b83811015612bc757815481890152600182019150602081019050612ba8565b808801955050505b50505092915050565b6000604082019050612bed6000830185612b30565b8181036020830152612bff8184612b54565b90509392505050565b6000606082019050612c1d6000830186612486565b612c2a602083018561267f565b612c376040830184612486565b949350505050565b60006020601f8301049050919050565b600082821b905092915050565b600060088302612c8c7fffffffffffffffffffffffffffffffffffffffffffffffffffffffffffffffff82612c4f565b612c968683612c4f565b95508019841693508086168417925050509392505050565b6000612cc9612cc4612cbf846123f1565b612b04565b6123f1565b9050919050565b6000819050919050565b612ce383612cae565b612cf7612cef82612cd0565b848454612c5c565b825550505050565b600090565b612d0c612cff565b612d17818484612cda565b505050565b5b81811015612d3b57612d30600082612d04565b600181019050612d1d565b5050565b601f821115612d8057612d5181612b3f565b612d5a84612c3f565b81016020851015612d69578190505b612d7d612d7585612c3f565b830182612d1c565b50505b505050565b600082821c905092915050565b6000612da360001984600802612d85565b1980831691505092915050565b6000612dbc8383612d92565b9150826002028217905092915050565b612dd58261233f565b67ffffffffffffffff811115612dee57612ded612521565b5b612df88254612ac9565b612e03828285612d3f565b600060209050601f831160018114612e365760008415612e24578287015190505b612e2e8582612db0565b865550612e96565b601f198416612e4486612b3f565b60005b82811015612e6c57848901518255600182019150602085019450602081019050612e47565b86831015612e895784890151612e85601f891682612d92565b8355505b6001600288020188555050505b505050505050565b7f456e766f6c76653a2043616c6c6572206973206e6f742074686520766572696660008201527f6965720000000000000000000000000000000000000000000000000000000000602082015250565b6000612efa60238361234a565b9150612f0582612e9e565b604082019050919050565b60006020820190508181036000830152612f2981612eed565b9050919050565b7f456e766f6c76653a204e46542068617320616c7265616479206265656e20737060008201527f6c69740000000000000000000000000000000000000000000000000000000000602082015250565b6000612f8c60238361234a565b9150612f9782612f30565b604082019050919050565b60006020820190508181036000830152612fbb81612f7f565b9050919050565b7f4e487b7100000000000000000000000000000000000000000000000000000000600052601160045260246000fd5b6000612ffc826123f1565b91507fffffffffffffffffffffffffffffffffffffffffffffffffffffffffffffffff820361302e5761302d612fc2565b5b600182019050919050565b6000819050919050565b600061305e61305961305484613039565b612b04565b612885565b9050919050565b61306e81613043565b82525050565b60006040820190506130896000830185613065565b818103602083015261309b8184612b54565b90509392505050565b7f4552433732313a20696e76616c696420746f6b656e2049440000000000000000600082015250565b60006130da60188361234a565b91506130e5826130a4565b602082019050919050565b60006020820190508181036000830152613109816130cd565b9050919050565b7f45524337323155524953746f726167653a2055524920736574206f66206e6f6e60008201527f6578697374656e7420746f6b656e000000000000000000000000000000000000602082015250565b600061316c602e8361234a565b915061317782613110565b604082019050919050565b6000602082019050818103600083015261319b8161315f565b9050919050565b600081519050919050565b600082825260208201905092915050565b60006131c9826131a2565b6131d381856131ad565b93506131e381856020860161235b565b6131ec81612385565b840191505092915050565b600060808201905061320c6000830187612486565b6132196020830186612486565b613226604083018561267f565b818103606083015261323881846131be565b905095945050505050565b600081519050613252816122b0565b92915050565b60006020828403121561326e5761326d61227a565b5b600061327c84828501613243565b91505092915050565b7f456e766f6c76653a204e6f7420656e6f75676820616374696f6e7320746f207360008201527f706c697400000000000000000000000000000000000000000000000000000000602082015250565b60006132e160248361234a565b91506132ec82613285565b604082019050919050565b60006020820190508181036000830152613310816132d4565b9050919050565b7f4e487b7100000000000000000000000000000000000000000000000000000000600052603260045260246000fd5b600061335182612885565b915061335c83612885565b9250828201905060ff81111561337557613374612fc2565b5b92915050565b600081905092915050565b6000815461339381612ac9565b61339d818661337b565b945060018216600081146133b857600181146133cd57613400565b60ff1983168652811515820286019350613400565b6133d685612b3f565b60005b838110156133f8578154818901526001820191506020810190506133d9565b838801955050505b50505092915050565b7f2f00000000000000000000000000000000000000000000000000000000000000600082015250565b600061343f60018361337b565b915061344a82613409565b600182019050919050565b60006134608261233f565b61346a818561337b565b935061347a81856020860161235b565b80840191505092915050565b7f2e6a736f6e000000000000000000000000000000000000000000000000000000600082015250565b60006134bc60058361337b565b91506134c782613486565b600582019050919050565b60006134de8285613386565b91506134e982613432565b91506134f58284613455565b9150613500826134af565b91508190509392505050565b600061351782612885565b915060ff820361352a57613529612fc2565b5b600182019050919050565b600060408201905061354a6000830185612486565b613557602083018461267f565b9392505050565b7f4e487b7100000000000000000000000000000000000000000000000000000000600052601260045260246000fdfea2646970667358221220473d791511cef0e32bd40778b1a17648f26ef2e2004048c04070db46acd0c33b64736f6c63430008140033",
  "linkReferences": {},
  "deployedLinkReferences": {}
}